S01900006D6F683030385F6C6162365F70617274332E7372656322
S113000045C0000060C000005EC000005CC000008D
S11300105AC0000058C0000056C0000054C0000080
S113002052C0000050C000004EC000004CC0000090
S11300304AC000007EC0000046C0000044C000006A
S113004042C0000040C000003EC000003CC00000B0
S11300503AC0000038C0000036C0000034C00000C0
S113006032C0000030C000002EC000002CC00000D0
S11300702AC0000028C0000026C0000024C00000E0
S113008022C0000020C000001EC0000011241FBEBA
S1130090CFEFD0E4DEBFCDBF11E0A0E0B1E0EAE2F3
S11300A0F5E000E00BBF02C007900D92A830B10745
S11300B0D9F721E0A8E0B1E001C01D92A732B20750
S11300C0E1F7ACD130C29CCF609304017093050179
S11300D0809306019093070160932101709322019C
S11300E0809323019093240108958BE080938100F1
S11300F08DE790E0909389008093880082E080935C
S11301006F001092850010928400809104019091F8
S11301100501A0910601B0910701809321019093FC
S11301202201A0932301B09324018FB780688FBF6D
S113013008951F920F920FB60F9211248F939F93DD
S1130140AF93BF938091210190912201A09123014B
S1130150B09124010197A109B109809321019093E1
S11301602201A0932301B0932401892B8A2B8B2B8A
S113017099F481E080932501809104019091050117
S1130180A0910601B091070180932101909322016F
S1130190A0932301B0932401BF91AF919F918F91BC
S11301A00F900FBE0F901F901895181619065CF04B
S11301B00895000021503109E1F74F5F5F4F841724
S11301C0950719F4089540E050E027E033E0F1CFBB
S11301D05E9888B95F9A00005F9882E090E0E5CF6E
S11301E0089581E0F5CF08958130910509F11CF45B
S11301F0892B39F03EC08230910519F1039751F1F2
S113020038C015B81092080180B190E0809590959F
S11302108770992731E020E0019709F030E0832FBF
S1130220922F8130910571F1009709F04DC022C0E1
S113023080B190E08095909587709927019711F58A
S113024030C080B190E08095909587709927019790
S113025091F527C0809108018C3361F080B190E062
S11302608095909587709927019729F51092080138
S113027009C0B7DFE0910201F0910301118280E02F
S113028090E0089581E085B9E0910201F0910301C5
S11302908183809108018F5F8093080181E090E061
S11302A0089581E085B9809108018F5F80930801EA
S11302B082E090E0089581E085B9809108018F5F24
S11302C08093080183E090E0089584E690E06DDF78
S11302D088E37EDF86E07CDF8FE07ADF81E078DF11
S11302E08AE090E062CF08955E9A88B95F9A000030
S11302F05F9881E090E059CF0895813118F48158D6
S113030067CF0895815564CF089590912601890F90
S11303108A3010F480932601089582309105B1F15A
S11303202CF4009759F0019769F054C0833091057B
S113033009F43FC0049709F445C04CC083E080939E
S1130340260148C080B190E08095909587709927E8
S1130350029721F481E090E0D8DF45C080B190E0BD
S11303608095909587709927049721F48FEF9FEFDC
S1130370CCDF42C080B190E080959095877099273A
S1130380069741F583E0809326013FC080B190E059
S11303908095909587709927029729F180B190E014
S11303A080959095877099270697A1F48FEF8BB964
S11303B0FFCF80B190E0809590958770992704973E
S11303C049F41AC080B190E0809590958770992780
S11303D00697D9F081E091DF80912601805D84DF6A
S11303E081E090E0089581E088DF80912601805DBE
S11303F07BDF82E090E0089581E07FDF8091260139
S1130400805D72DF83E090E0089581E076DF809183
S11304102601805D69DF84E090E0089511B88FEFD4
S113042082B984B915B887B918B88AB91BB8E5E197
S1130430F1E0808341E050E060E070E04283538368
S11304406483758391E091834683578360877187C2
S113045024EF30E033872287E9E0F1E0808302E093
S113046010E020E030E002831383248335839183FA
S113047046835783608771878DE891E093878287ED
S113048024DF62E370E080E090E01EDE2EDE0F2EBB
S1130490F4E0CF2EF1E0DF2EF02DC0E0D1E07E01BC
S11304A008811981D80111968C911197813081F5B9
S11304B016964D915D916D917C91199712968D913F
S11304C09D910D90BC91A02D481759076A077B0791
S11304D089F4F80180810284F385E02D082E000C54
S11304E0990B0995D8018C93E881F98116821782BA
S11304F010861186D701ED91FC9186819781A085A4
S1130500B1850196A11DB11D86839783A087B1870C
S11305102296CC15DD0519F6809125018823E1F397
S10D052010922501BACFF894FFCF22
S10B052A1501090101000000A4
S9030000FC
