S01900006D6F683030385F6C6162365F70617274312E7372656324
S113000045C0000060C000005EC000005CC000008D
S11300105AC0000058C0000056C0000054C0000080
S113002052C0000050C000004EC000004CC0000090
S11300304AC000007EC0000046C0000044C000006A
S113004042C0000040C000003EC000003CC00000B0
S11300503AC0000038C0000036C0000034C00000C0
S113006032C0000030C000002EC000002CC00000D0
S11300702AC0000028C0000026C0000024C00000E0
S113008022C0000020C000001EC0000011241FBEBA
S1130090CFEFD0E4DEBFCDBF11E0A0E0B1E0EEE4ED
S11300A0F5E000E00BBF02C007900D92A830B10745
S11300B0D9F721E0A8E0B1E001C01D92A732B20750
S11300C0E1F7BED142C29CCF609304017093050155
S11300D0809306019093070160932101709322019C
S11300E0809323019093240108958BE080938100F1
S11300F08DE790E0909389008093880082E080935C
S11301006F001092850010928400809104019091F8
S11301100501A0910601B0910701809321019093FC
S11301202201A0932301B09324018FB780688FBF6D
S113013008951F920F920FB60F9211248F939F93DD
S1130140AF93BF938091210190912201A09123014B
S1130150B09124010197A109B109809321019093E1
S11301602201A0932301B0932401892B8A2B8B2B8A
S113017099F481E080932501809104019091050117
S1130180A0910601B091070180932101909322016F
S1130190A0932301B0932401BF91AF919F918F91BC
S11301A00F900FBE0F901F901895181619065CF04B
S11301B00895000021503109E1F74F5F5F4F841724
S11301C0950719F4089540E050E027E033E0F1CFBB
S11301D05E9888B95F9A00005F9882E090E0E5CF6E
S11301E0089581E0F5CF089584E690E0DEDF88E3AA
S11301F0EFDF86E0EDDF8FE0EBDF81E0E9DF8AE02F
S113020090E0D3CF08955E9A88B95F9A00005F9812
S113021081E090E0CACF0895813118F48158D8CF95
S113022008958155D5CF08950F931F93CF93DF93EE
S1130230182FEB01D6DF8881882351F001E0010FEC
S1130240812FEADF8991DFDF102F88818111F6CFBA
S1130250DF91CF911F910F91089581309105F1F0B5
S11302601CF4892B39F03BC08230910501F10397CE
S113027039F135C015B81092080180B190E080952D
S113028090958770992731E020E0019709F030E0DC
S1130290832F922F8130910521F1089580B190E050
S11302A080959095877099270197D9F424C080B1DF
S11302B090E08095909587709927019759F51BC018
S11302C0809108018C3381F180B190E08095909504
S11302D0877099270197F1F41092080102C081DF19
S11302E023C081E085B9809108018F5F8093080164
S11302F081E090E0089581E085B9609108016F5F25
S11303006093080170E0605D7F4F85E08DDF82E0DF
S113031090E0089581E085B9809108018F5F809312
S1130320080183E090E0089580E090E008959091C2
S11303302601890F8A3010F48093260108958230B3
S11303409105B1F12CF4009759F0019769F054C06C
S11303508330910509F43FC0049709F445C04CC0AB
S113036083E08093260148C080B190E08095909509
S113037087709927029721F481E090E0D8DF45C087
S113038080B190E08095909587709927049721F427
S11303908FEF9FEFCCDF42C080B190E080959095C5
S11303A087709927069741F583E0809326013FC023
S11303B080B190E08095909587709927029729F1F4
S11303C080B190E080959095877099270697A1F465
S11303D08FEF8BB9FFCF80B190E0809590958770B7
S11303E09927049749F41AC080B190E080959095BC
S11303F0877099270697D9F081E00EDF8091260156
S1130400805D01DF81E090E0089581E005DF809167
S11304102601805DF8DE82E090E0089581E0FCDE54
S113042080912601805DEFDE83E090E0089581E015
S1130430F3DE80912601805DE6DE84E090E008959D
S113044011B88FEF82B984B915B887B918B88AB9C9
S11304501BB8E5E1F1E0808341E050E060E070E04A
S1130460428353836483758391E0918346835783E6
S1130470608771872DE231E033872287E9E0F1E07C
S1130480808302E010E020E030E0028313832483C1
S11304903583918346835783608771878FE991E021
S11304A093878287A1DE62E370E080E090E00CDE57
S11304B01CDE0F2EF4E0CF2EF1E0DF2EF02DC0E095
S11304C0D1E07E0108811981D80111968C91119790
S11304D0813081F516964D915D916D917C911997BE
S11304E012968D919D910D90BC91A02D481759079E
S11304F06A077B0789F4F80180810284F385E02D83
S1130500082E000C990B0995D8018C93E881F98188
S11305101682178210861186D701ED91FC9186818F
S11305209781A085B1850196A11DB11D868397830E
S1130530A087B1872296CC15DD0519F68091250197
S11105408823E1F310922501BACFF894FFCF7F
S10B054E150109010100000080
S9030000FC
