:1000000045C0000060C000005EC000005CC0000091
:1000100098C1000058C0000056C0000054C0000045
:1000200052C0000050C000004EC000004CC0000094
:100030004AC000007EC0000046C0000044C000006E
:1000400042C0000040C000003EC000003CC00000B4
:100050003AC0000038C0000036C0000034C00000C4
:1000600032C0000030C000002EC000002CC00000D4
:100070002AC0000028C0000026C0000024C00000E4
:1000800022C0000020C000001EC0000011241FBEBE
:10009000CFEFD0E4DEBFCDBF11E0A0E0B1E0ECE4F3
:1000A000F4E000E00BBF02C007900D92A630B1074C
:1000B000D9F721E0A6E0B1E001C01D92A831B20756
:1000C000E1F761D1C1C19CCF60930201709303013C
:1000D00080930401909305016093120170931301C2
:1000E000809314019093150108958BE08093810013
:1000F0008DE790E0909389008093880082E0809360
:100100006F001092850010928400809102019091FE
:100110000301A0910401B091050180931201909315
:100120001301A0931401B09315018FB780688FBF9E
:1001300008951F920F920FB60F9211248F939F93E1
:10014000AF93BF938091120190911301A09114017C
:10015000B09115010197A109B10980931201909303
:100160001301A0931401B0931501892B8A2B8B2BBB
:1001700099F481E08093160180910201909103012E
:10018000A0910401B0910501809312019093130195
:10019000A0931401B0931501BF91AF919F918F91DE
:1001A0000F900FBE0F901F901895181619065CF04F
:1001B0000895000021503109E1F74F5F5F4F841728
:1001C000950719F4089540E050E027E033E0F1CFBF
:1001D0005E9888B95F9A00005F9882E090E0E5CF72
:1001E000089584E690E0E1DF88E3F2DF86E0F0DF67
:1001F0008FE0EEDF81E0ECDF8AE090E0D6CF08957B
:100200005E9A88B95F9A00005F9881E090E0CDCF58
:100210000895813118F48158DBCF08958155D8CFE6
:10022000089590911701890F8A3010F48093170177
:10023000089582309105B1F12CF4009759F001979F
:1002400069F054C08330910509F43FC0049709F464
:1002500045C04CC083E08093170148C080B190E056
:100260008095909587709927029721F481E090E01E
:10027000D8DF45C080B190E0809590958770992730
:10028000049721F48FEF9FEFCCDF42C080B190E064
:100290008095909587709927069741F583E0809324
:1002A00017013FC080B190E08095909587709927A5
:1002B000029729F180B190E08095909587709927F9
:1002C0000697A1F48FEF8BB9FFCF80B190E08095B6
:1002D000909587709927049749F41AC080B190E0EF
:1002E00080959095877099270697D9F081E091DFE6
:1002F00080911701805D84DF81E090E0089581E0C6
:1003000088DF80911701805D7BDF82E090E00895B7
:1003100081E07FDF80911701805D72DF83E090E0F4
:10032000089581E076DF80911701805D69DF84E0C8
:1003300090E0089581E08FBF8093680080936B0008
:1003400008951F920F920FB60F921124CEDE68EB24
:100350007BE080E090E0B8DE91E0009907C095B9BD
:10036000E0910001F0910101918306C015B8E09180
:100370000001F09101011182809116018823E1F3BF
:1003800010921601EACF11B88FEF82B984B915B86F
:1003900087B918B88AB91BB8E6E0F1E0808382E03B
:1003A00090E0A0E0B0E082839383A483B58321E052
:1003B000218386839783A087B18789E191E0938722
:1003C0008287B8DF0EDF62E370E080E090E07CDEE1
:1003D0008CDE7894C0910001D09101018981813037
:1003E00061F54E815F81688579858A819B81AC81C9
:1003F000BD81481759076A077B0781F48881EA8520
:10040000FB85082E000C990B09958883E09100016B
:10041000F09101011682178210861186E091000189
:10042000F091010186819781A085B1850196A11D7A
:10043000B11D86839783A087B18780911601882399
:0C044000E1F310921601C6CFF894FFCF34
:06044C00060101000000A2
:00000001FF
