:1000000045C0000060C000005EC000005CC0000091
:10001000F7C1000058C0000056C0000054C00000E6
:1000200052C0000050C000004EC000004CC0000094
:100030004AC000007EC0000046C0000044C000006E
:1000400042C0000040C000003EC000003CC00000B4
:100050003AC0000038C0000036C0000034C00000C4
:1000600032C0000030C000002EC000002CC00000D4
:100070002AC0000028C0000026C0000024C00000E4
:1000800022C0000020C000001EC0000011241FBEBE
:10009000CFEFD0E4DEBFCDBF11E0A0E0B1E0EAE3F6
:1000A000F5E000E00BBF02C007900D92A830B10749
:1000B000D9F721E0A8E0B1E001C01D92A832B20753
:1000C000E1F7B2D138C29CCF60930401709305016F
:1000D000809306019093070160932201709323019E
:1000E000809324019093250108958BE080938100F3
:1000F0008DE790E0909389008093880082E0809360
:100100006F001092850010928400809104019091FC
:100110000501A0910601B0910701809322019093FF
:100120002301A0932401B09325018FB780688FBF6E
:1001300008951F920F920FB60F9211248F939F93E1
:10014000AF93BF938091220190912301A09124014C
:10015000B09125010197A109B109809322019093E3
:100160002301A0932401B0932501892B8A2B8B2B8B
:1001700099F481E08093260180910401909105011A
:10018000A0910601B0910701809322019093230171
:10019000A0932401B0932501BF91AF919F918F91BE
:1001A0000F900FBE0F901F901895181619065CF04F
:1001B0000895000021503109E1F74F5F5F4F841728
:1001C000950719F4089540E050E027E033E0F1CFBF
:1001D0005E9888B95F9A00005F9882E090E0E5CF72
:1001E000089581E0F5CF089581309105B9F01CF4B0
:1001F000892B39F028C082309105A9F00397C1F00E
:1002000022C01092080115B831E020E08091090168
:10021000811101C030E0832F922F17C08091090116
:10022000811139C029C080910901811134C03DC0BC
:10023000809108018C33B9F0809109018823A9F1DC
:100240001092080119C080E090E081309105A1F082
:100250001CF4009741F0089582309105E1F083305D
:10026000910561F522C0E0910001F0910101118238
:10027000B8DF80E090E0089581E085B9E091000169
:10028000F09101018183809108018F5F80930801C3
:1002900081E090E0089581E085B9809108018F5F49
:1002A0008093080182E090E0089581E085B9809113
:1002B00008018F5F8093080183E090E0089584E651
:1002C00090E073DF88E384DF86E082DF8FE080DF09
:1002D00081E07EDF8AE090E068CF08955E9A88B979
:1002E0005F9A00005F9881E090E05FCF08958131D0
:1002F00018F481586DCF089581556ACF0895909173
:100300002701890F8A3010F48093270108958230E5
:10031000910581F12CF4009751F0019761F044C0F0
:1003200083309105A9F1049709F43BC03DC083E0F7
:100330008093270139C080B190E0809590958670B8
:100340009927029721F481E090E0D9DF36C080B18F
:1003500090E08095909586709927049721F48FEF0F
:100360009FEFCDDF33C080B18670F1F483E08093DE
:10037000270135C080B190E08095909586709927CF
:100380000297D9F080B1867079F48FEF8BB9FFCFE7
:1003900080B190E08095909586709927049721F41C
:1003A00015C080B18670D9F081E0A1DF809127016E
:1003B000805D94DF81E090E0089581E098DF809196
:1003C0002701805D8BDF82E090E0089581E08FDF80
:1003D00080912701805D82DF83E090E0089581E0D5
:1003E00086DF80912701805D79DF84E090E00895C9
:1003F00080E88FBF81E08093680080936B00089550
:100400001F920F920FB60F9211248F93009904C080
:1004100081E08093090102C0109209018F910F9031
:100420000FBE0F901F90189511B88FEF82B984B945
:1004300015B887B918B88AB91BB8E6E1F1E080832E
:1004400042E050E060E070E0428353836483758350
:1004500021E02183468357836087718747E851E015
:1004600053874287EAE0F1E0808381E090E0A0E0FA
:10047000B0E082839383A483B583218386839783AB
:10048000A087B18784EF90E093878287B1DF17DF81
:1004900062E370E080E090E017DE27DE78940F2EB4
:1004A000F4E0CF2EF1E0DF2EF02DC0E0D1E07E01B0
:1004B00008811981D80111968C911197813081F5AD
:1004C00016964D915D916D917C91199712968D9133
:1004D0009D910D90BC91A02D481759076A077B0785
:1004E00089F4F80180810284F385E02D082E000C48
:1004F000990B0995D8018C93E881F98116821782AE
:1005000010861186D701ED91FC9186819781A08597
:10051000B1850196A11DB11D86839783A087B18700
:100520002296CC15DD0519F6809126018823E1F38A
:0A05300010922601BACFF894FFCF15
:08053A0016010A010100000096
:00000001FF
